:020000040000FA
:060000000A128A11122809
:10000800FE00030EF4000408F5000A08F600831247
:1000180003137F08F7000A168A11802D0A128A1125
:1000280015288317E030FD000830FE007830FF0007
:10003800903084000A168A116A240A128A1138300C
:10004800FD001630FE006B30FF00103084000A16E9
:100058008A116A240A128A118313C030FD001530F0
:10006800FE00BA30FF00A03084000A168A116A2404
:100078000A128A113E30FD001530FE009C30FF0048
:10008800203084000A168A116A240A128A11C030A4
:100098008400D4300A168A1158230A128A113E3075
:1000A800840056300A168A1158230A128A11F80158
:1000B800F901FA0183010A168A11532C83120313DA
:1000C800DE00DF0176280630FF007F08DF008F287A
:1000D8000830FF007F08DF008F280330FF007F080B
:1000E800DF008F285E08DA00DB015B08003A03199D
:1000F8007E288F285A08003A03196728013A0319FD
:100108006C28033A03196C28013A03196C28073A3A
:10011800031971288F28E001A3290630600203180B
:10012800962897289F290130DA00600A9D28031035
:10013800DA0DFF3E031D9B285A085905DB00600AAB
:10014800A7280310DB0CFF3E031DA5285B08DC0075
:10015800600AB0280310DC0DFF3E031DAE280130F5
:10016800DD00600AB9280310DD0DFF3E031DB72826
:100178005D08FF3A05055C0485009F290830600288
:100188000318C728C8289F290130DA00600ACE283A
:100198000310DA0DFF3E031DCC285A085905DB0071
:1001A800600AD8280310DB0CFF3E031DD6285B0825
:1001B800DC00600AE1280310DC0DFF3E031DDF2888
:1001C8000130DD00600AEA280310DD0DFF3E031D43
:1001D800E8285D08FF3A06055C0486009F29083078
:1001E80060020318F828F9289F290130DA00600A0C
:1001F800FF280310DA0DFF3E031DFD285A08590594
:10020800DB00600A09290310DB0CFF3E031D0729E8
:100218005B08DC00600A12290310DC0DFF3E031D99
:1002280010290130DD00600A1B290310DD0DFF3E97
:10023800031D19295D08FF3A07055C0487009F29FB
:1002480008306002031829292A299F290130DA0079
:10025800600A30290310DA0DFF3E031D2E295A08C3
:100268005905DB00600A3A290310DB0CFF3E031D29
:1002780038295B08DC00600A43290310DC0DFF3EC7
:10028800031D41290130DD00600A4C290310DD0DF2
:10029800FF3E031D4A295D08FF3A08055C048800F3
:1002A8009F290330600203185A295B299F290130CE
:1002B800DA00600A61290310DA0DFF3E031D5F2989
:1002C8005A085905DB00600A6B290310DB0CFF3E56
:1002D800031D69295B08DC00600A74290310DC0D22
:1002E800FF3E031D72290130DD00600A7D290310DD
:1002F800DD0DFF3E031D7B295D08FF3A09055C04FF
:1003080089009F295E08DA00DB015B08003A0319BF
:100318008E299F295A08003A03199128013A03198E
:10032800C228033A0319F328013A03192429073A82
:10033800031955299F290130FF007F08E0075F084E
:100348006002031CA829A92986290800831203131F
:100358005503031DB029B129B8290430BE07031875
:10036800BF0A0030BF07D5013A30D6000030D700A9
:100378003F08D9003E08D8000A168A1100270A1239
:100388008A118312031356085704031DCC29CD295B
:10039800D7290A128A15A3250A128A110A128A1164
:1003A800D7250A128A110330831203133E05EA0087
:1003B80000303F05EB006A086B04031DE429E529BA
:1003C800EA290A168A112D240A128A116C3083121E
:1003D8000313D6000030D7003F08D9003E08D800E4
:1003E8000A168A1100270A128A1183120313560863
:1003F8005704031D002A012A102A0A128A15092007
:100408000A128A110A168A111D260A128A110A1658
:100418008A1166250A128A11D83083120313D6006E
:100428000030D7003F08D9003E08D8000A168A11C4
:1004380000270A128A118312031356085704031D52
:10044800262A272A2C2A0A168A1193260A128A1182
:10045800643083120313D6000030D7003F08D90058
:100468003E08D8000A168A1100270A128A11831238
:10047800031356085704031D422A432A482A0A161A
:100488008A11B3230A128A11E830831203133E0635
:10049800033003193F06031D522A532A622A0A16FB
:1004A8008A1160230A128A110A168A117A230A12FB
:1004B8008A110A168A11B7240A128A113C3083124B
:1004C8000313D6000130D7003F08D9003E08D800F2
:1004D8000A168A1100270A128A1183120313560872
:1004E8005704031D782A792A832A0A168A11CC24EC
:1004F8000A128A110A168A11A2240A128A11DC30F9
:1005080083120313D6000030D7003F08D9003E08F5
:10051800D8000A168A1100270A128A1183120313B7
:1005280056085704031D992A9A2AA42A0A168A11DA
:1005380042230A128A110A168A113C230A128A11C6
:10054800F43083120313D6000130D7003F08D900D6
:100558003E08D8000A168A1100270A128A11831247
:10056800031356085704031DBA2ABB2AC02A0A12C5
:100578008A1500200A128A11FC3083120313D60050
:100588000030D7003F08D9003E08D8000A168A1163
:1005980000270A128A118312031356085704031DF1
:1005A800D62AD72ADC2A0A168A1140240A128A1166
:1005B800E830831203133E06033003193F06031D78
:1005C800E62AE72AE92ABE01BF01080083120313BD
:1005D800E2010730FF007F08D60062080A168A1178
:1005E80020250A128A11A63E840083130003031DE6
:1005F800FE2AFF2A0E2C0730FF007F088312031300
:10060800D60062080A168A1120250A128A11A43E09
:10061800840083130008FF007F0883120313E0009F
:100628000730FF007F08D60062080A168A112025C5
:100638000A128A11A33E8400831203136008FF0084
:100648007F08831380000730FF007F08D600620808
:100658000A168A1120250A128A11A23E84008313E1
:100668000008FF007F0883120313D9000730FF003A
:100678007F08D60062080A168A1120250A128A11F4
:10068800A13E8400831300080A128A119D260A12CB
:100698008A1183120313DE000730FF007F08D6009B
:1006A80062080A168A1120250A128A11A43E8400BB
:1006B800831203135E08831380000730FF007F084E
:1006C800D60062080A168A1120250A128A11A33E4A
:1006D800840083130008FF007F0883120313E000DF
:1006E8000730FF007F08D60062080A168A11202505
:1006F8000A128A11A43E840083130008FF007F08B1
:1007080083120313E100E92B6008031D8C2B8D2B4A
:100718000E2C6108031D912B922B0E2C0730FF0025
:100728007F08D60062080A168A1120250A128A1143
:10073800A53E840083138001800A0E2C6108031DE6
:10074800A62BA72B0E2C0730FF007F08D6006208C7
:100758000A168A1120250A128A11A53E8400023041
:10076800FF007F08831380000E2C6003031DBD2B40
:10077800BE2B0E2C6103031DC22BC32B0E2C07307E
:10078800FF007F08D60062080A168A1120250A127F
:100798008A11A53E84000330FF007F088313800080
:1007A8000E2C6103031DD92BDA2B0E2C0730FF000A
:1007B8007F08D60062080A168A1120250A128A11B3
:1007C800A53E8400831380010E2C0730FF007F08AC
:1007D800D60062080A168A1120250A128A11A53E37
:1007E80084008313000883120313DE00DF015F080F
:1007F800003A0319002C0E2C5E08003A0319882BC6
:10080800013A0319A22B033A0319B92B013A031928
:10081800D52B0E2C0130FF007F0883120313E2074B
:1008280003306202031C192C1A2CED2A08008312CB
:100838000313D900DA012F2C0630FF007F08DA00F5
:10084800482C0830FF007F08DA00482C0330FF00EE
:100858007F08DA00482C5908D700D8015808003A10
:100868000319372C482C5708003A0319202C013A51
:100878000319252C033A0319252C013A0319252CB1
:10088800073A03192A2C482CDB01FE2C5608D700FE
:100898005B0A502C0310D70DFF3E031D4E2C013070
:1008A800D8005B0A592C0310D80DFF3E031D572CA6
:1008B8005808FF3A831603130505831203135704D8
:1008C800831603138500F92C5608D7005B0A6E2C93
:1008D8000310D70DFF3E031D6C2C0130D8005B0AB6
:1008E800772C0310D80DFF3E031D752C5808FF3ACE
:1008F8008316031306058312031357048316031381
:100908008600F92C5608D7005B0A8C2C0310D70DEB
:10091800FF3E031D8A2C0130D8005B0A952C03107A
:10092800D80DFF3E031D932C5808FF3A8316031376
:100938000705831203135704831603138700F92C42
:100948005608D7005B0AAA2C0310D70DFF3E031DDB
:10095800A82C0130D8005B0AB32C0310D80DFF3E39
:10096800031DB12C5808FF3A831603130805831298
:1009780003135704831603138800F92C5608D7006D
:100988005B0AC82C0310D70DFF3E031DC62C01308F
:10099800D8005B0AD12C0310D80DFF3E031DCF2CC5
:1009A8005808FF3A831603130905831203135704E3
:1009B800831603138900F92C5908D700D801580861
:1009C800003A0319E82CF92C5708003A03194A2C65
:1009D800013A0319682C033A0319862C013A0319C2
:1009E800A42C073A0319C22CF92C0130FF007F0808
:1009F8008312DB075A085B02031C032D042DE02C2D
:100A0800080083120313DD00BD2D063059020318B8
:100A18000E2D0F2DD62D5A08DB00590A152D03105F
:100A2800DB0DFF3E031D132D0130DC00590A1E2D7E
:100A38000310DC0DFF3E031D1C2D5C08FF3A8316D6
:100A480003130505831203135B0483160313850040
:100A5800D62D083059020318322D332DD62D5A08B9
:100A6800DB00590A392D0310DB0DFF3E031D372D1E
:100A78000130DC00590A422D0310DC0DFF3E031D36
:100A8800402D5C08FF3A83160313060583120313EF
:100A98005B04831603138600D62D08305902031809
:100AA800562D572DD62D5A08DB00590A5D2D0310F7
:100AB800DB0DFF3E031D5B2D0130DC00590A662D5E
:100AC8000310DC0DFF3E031D642D5C08FF3A8316FE
:100AD80003130705831203135B04831603138700AC
:100AE800D62D0830590203187A2D7B2DD62D5A0899
:100AF800DB00590A812D0310DB0DFF3E031D7F2DFE
:100B08000130DC00590A8A2D0310DC0DFF3E031D5D
:100B1800882D5C08FF3A8316031308058312031314
:100B28005B04831603138800D62D0330590203187B
:100B38009E2D9F2DD62D5A08DB00590AA52D03108E
:100B4800DB0DFF3E031DA32D0130DC00590AAE2D3D
:100B58000310DC0DFF3E031DAC2D5C08FF3A831625
:100B680003130905831203135B0483160313890017
:100B7800D62D5D08DB00DC015C08003A0319C52DA1
:100B8800D62D5B08003A0319092D013A03192D2DBA
:100B9800033A0319512D013A0319752D073A031920
:100BA800992DD62D0800831203134B03031DDD2D49
:100BB800DE2D992E0A168A1138230A128A11FF008F
:100BC8007F0883120313D9004108031DEC2DED2D76
:100BD800282E5908043ED600003003180130D700EB
:100BE8005708803AD80080305802031DFD2D44086C
:100BF80056020318002E012E0A2E831203134008F2
:100C0800031D072E082E0A2EC001C00A83120313E3
:100C18004408043ED600003003180130D7005708B6
:100C2800803AD80080305802031D1C2E59085602FD
:100C380003181F2E202E282E831203134003031D92
:100C4800262E272E282EC001831203134008031DC9
:100C58002E2E2F2E6A2E4408043ED600003003188C
:100C68000130D7005708803AD80080305802031D59
:100C78003F2E590856020318422E432E4C2E83123B
:100C880003134108031D492E4A2E4C2EC101C10AE7
:100C9800831203135908043ED600003003180130AC
:100CA800D7005708803AD80080305802031D5E2EBE
:100CB800440856020318612E622E6A2E831203130B
:100CC8004103031D682E692E6A2EC1018312031386
:100CD8004103031D702E712E742EC801C80A7A2E86
:100CE8004108031D782E792E7A2EC8014003031D72
:100CF8007E2E7F2E902EC901C90A4608031D852E17
:100D0800862E9C2E4208031D8A2E8B2E9C2EC601F1
:100D1800C60AC201C20A9C2E4008031D942E952EB5
:100D28009C2EC901C601C2019C2EC201C101C0018D
:100D3800080083120313DC00DD01382F0630590246
:100D48000318A72EA82E512F0130DA00590AAE2E0B
:100D58000310DA0DFF3E031DAC2E5A080505DB0013
:100D6800590AB82E0310DB0CFF3E031DB62E5B0894
:100D7800FF007F08DD00512F083059020318C52EE7
:100D8800C62E512F0130DA00590ACC2E0310DA0D85
:100D9800FF3E031DCA2E5A080605DB00590AD62E47
:100DA8000310DB0CFF3E031DD42E5B08FF007F08F9
:100DB800DD00512F083059020318E32EE42E512F7D
:100DC8000130DA00590AEA2E0310DA0DFF3E031D3E
:100DD800E82E5A080705DB00590AF42E0310DB0C2D
:100DE800FF3E031DF22E5B08FF007F08DD00512F38
:100DF800083059020318012F022F512F0130DA0051
:100E0800590A082F0310DA0DFF3E031D062F5A0852
:100E18000805DB00590A122F0310DB0CFF3E031DE7
:100E2800102F5B08FF007F08DD00512F03305902A7
:100E380003181F2F202F512F0130DA00590A262FAF
:100E48000310DA0DFF3E031D242F5A080905DB00A5
:100E5800590A302F0310DB0CFF3E031D2E2F5B08B1
:100E6800FF007F08DD00512F5C08DA00DB015B081A
:100E7800003A0319402F512F5A08003A0319A22E9D
:100E8800013A0319C02E033A0319DE2E013A031959
:100E9800FC2E073A03191A2F512F5D0808008312F8
:100EA8000313E1000730FF007F08D60061080A1627
:100EB8008A1120250A128A11A23E84008313000891
:100EC800FF007F0883120313D900DA01DA0A07301A
:100ED800FF007F08D60061080A168A1120250A1229
:100EE8008A11A13E8400831300080A128A1105257D
:100EF8000A128A110730FF007F0883120313D600F5
:100F080061080A168A1120250A128A11A63E840051
:100F180083138001800A0730FF007F0883120313C0
:100F2800D60061080A168A1120250A128A11A53EE0
:100F38008400831203135E08FF007F088313800078
:100F4800E52F0730FF007F08D60061080A168A11CE
:100F580020250A128A11A33E840083138001800A87
:100F68000730FF007F0883120313D60061080A16B2
:100F78008A1120250A128A11A43E84008313800155
:100F8800800AFB2F0730FF007F08D60061080A1689
:100F98008A1120250A128A11A33E84008313800136
:100FA8000730FF007F0883120313D60061080A1672
:100FB8008A1120250A128A11A43E84008313800115
:100FC800FB2F5E08DF00E0016008003A0319ED2FEF
:100FD800FB2F5F08003A0319A52F013A0319C62F02
:100FE800033A0319C62F013A0319A52FFB2F08004E
:100FF80083120313500808008312031344080A16C7
:101008008A11E5230A128A15080083120313490876
:10101800031D0F28102831284808031D14281528F7
:101028003128D90102300A168A1137250A128A1581
:1010380083120313D90103300A168A1137250A12BD
:101048008A1500300A168A11F6230A128A15013009
:101058000A168A11F6230A128A1508008312031346
:10106800E001E1015C085D0403193B283C28732872
:10107800E201E20A4A2801300310DC0DDD0DFF3ED3
:10108800031D40280130FF007F08E207DD1F4D28BF
:101098004E283F2801300310E00DE10DFF3E031DEF
:1010A8004F285D085F02031D5B285C085E02031C75
:1010B8005E285F2866285C08DE025D08031CDF03E3
:1010C800DF02601401300310DD0CDC0CFF3E031D51
:1010D80067280130E202031D722873284E28610830
:1010E800DD006008DC000800E83403340234003412
:1010F8000034F4340134043400340134FA34003454
:101108000834003402347D3400341034003403349D
:101118003E3400342034003404341F340034403466
:10112800003405340F340034803400340634073476
:101138000034003401340734E83403340234003412
:101148000034F4340134043400340134FA34003403
:101158000834003402347D3400341034003403344D
:101168003E3400342034003404341F340034403416
:10117800003405340F340034803400340634073426
:10118800003400340134073483120313DF000530C0
:10119800FF007F08D6005F080A168A1120250A1268
:1011A8008A15363E840083130008FF007F088312E7
:1011B8000313D900DA010530FF007F08D6005F0865
:1011C8000A168A1120250A128A15353E84008313CF
:1011D80000080A128A1105250A128A150530FF002F
:1011E8007F0883120313D6005F080A168A11202588
:1011F8000A128A15383E840083138001800A05305C
:10120800FF007F0883120313D6005F080A168A11AD
:1012180020250A128A15373E8400831203135E08BC
:10122800FF007F088313800008000530FF007F0857
:1012380083120313D60053080A168A1120250A12AE
:101248008A15903E840083170008FF007F088312E8
:101258000313DB005908FF007F08D6005B080A1655
:101268008A1120250A128A15003CFF007F08831284
:101278000313D100521841294529831603138116F7
:1012880048298316031381120B118B168B178112B1
:101298000530FF007F0883120313D60053080A168F
:1012A8008A1120250A128A15903E840083170008A7
:1012B800FF007F0883120313DB005908FF007F0833
:1012C800D6005B080A168A1120250A128A15003CE6
:1012D800831203138100080083120313DB01D91F53
:1012E800762977297E29D809D909D80A0319D90A6C
:1012F800DB01DB0AD71F812982298729D609D7096B
:10130800D60A0319D70A5608570403198C298D29B8
:10131800BC29DA01DA0A9B2901300310D60DD70D52
:10132800FF3E031D91290130FF007F08DA07D71F10
:101338009E299F29902957085902031DA529560857
:101348005802031CA829A929AF295608D80257080A
:10135800031CD903D90201300310D70CD60CFF3E69
:10136800031DB0290130DA02031DBB29BC299F29BE
:101378005B080319C029C129C629D809D909D80A7F
:101388000319D90A5908D7005808D600080083124B
:101398000313DE010530FF007F08D6005E080A1639
:1013A8008A1120250A128A15383E84008313000307
:1013B800031DDF29E0291B2A0530FF007F0883125F
:1013C8000313D6005E080A168A1120250A128A1508
:1013D800363E840083130008FF007F08831203133E
:1013E800D9000530FF007F08D6005E080A168A116A
:1013F80020250A128A15373E840083130008FF004F
:101408007F0883120313DA000530FF007F08D60037
:101418005E080A168A1120250A128A15353E8400AC
:10142800831300080A128A154C270A128A150130FC
:10143800FF007F0883120313DE0702305E02031CDD
:10144800262A272ACE290800831203135D080139AA
:10145800FF007F08E0005C08FF007F08DF000A1635
:101468008A1188230A128A15831203136008031944
:101478003E2A3F2A462AA2300A168A1179240A12DD
:101488008A154C2AA0300A168A1179240A128A155C
:10149800831203135F080A168A1179240A128A151F
:1014A8000A168A1188230A128A1583120313600800
:1014B80003195F2A602A672AA3300A168A11792439
:1014C8000A128A156D2AA1300A168A1179240A127D
:1014D8008A15013083120313D6000030D7000A168C
:1014E8008A113C270A128A15FF007F08831203130A
:1014F800DE000A168A1196230A128A15831203132C
:101508005E08080083120313E0000530FF007F081F
:10151800D60060080A168A1120250A128A15213E6B
:10152800840083130008FF007F0883120313D90087
:10153800DA0100300A128A1105250A128A15831267
:101548000313D60103300A128A111B240A128A15C2
:101558000530FF007F0883120313D60060080A16BF
:101568008A1120250A128A15243E840083138001DB
:10157800800A0530FF007F0883120313D600600835
:101588000A168A1120250A128A15223E840083121F
:1015980003135E08FF007F08831380000530FF00F7
:1015A8007F08D60060080A168A1120250A128A15B3
:1015B800233E8400831203135F08FF007F08831310
:1015C8008000080083120313E101DD1FEC2AED2AD5
:1015D800F42ADC09DD09DC0A0319DD0AE101E10A64
:1015E800DF1FF72AF82A012BDE09DF09DE0A0319B3
:1015F800DF0A0130FF007F08E106E201E3015C0831
:101608005D040319082B092B402BE001E00A172B76
:1016180001300310DC0DDD0DFF3E031D0D2B0130E5
:10162800FF007F08E007DD1F1A2B1B2B0C2B013056
:101638000310E20DE30DFF3E031D1C2B5D085F0246
:10164800031D282B5C085E02031C2B2B2C2B332B31
:101658005C08DE025D08031CDF03DF026214013050
:101668000310DD0CDC0CFF3E031D342B0130E002BF
:10167800031D3F2B402B1B2B61080319442B452BC3
:101688004A2BE209E309E20A0319E30A6308DD00C9
:101698006208DC00080083120313DB005B08FF000C
:1016A8007F08D3005908FF007F08D2008B120B1166
:1016B80083160313811681110530FF007F088312FA
:1016C8000313D60053080A168A1120250A128A1510
:1016D800943E84008317000883120313DA00023053
:1016E8000310DA0CFF3E031D742B5A187C2B802B39
:1016F800831603130115832B831603130111053079
:10170800FF007F0883120313D60053080A168A11B4
:1017180020250A128A15943E840083170008831234
:101728000313DA0001300310DA0CFF3E031D972B78
:101738005A189F2BA32B831603138114A62B8316E9
:10174800031381100530FF007F0883120313D600AE
:1017580053080A168A1120250A128A15943E840015
:1017680083170018B82BBC2B831603130114BF2B47
:1017780083160313011008000A168A11F6240A12A8
:101788008A150A168A1108240A128A15FF007F088A
:1017980083120313C400D60101300A128A152825C2
:1017A8000A128A150A168A11DA250A128A150030D1
:1017B8000A168A110B250A128A1500300A168A1190
:1017C800E1240A128A1583120313D90107300A1279
:1017D8008A154F230A128A1583120313DE01DF01CB
:1017E80002300A128A1586220A128A1583120313F6
:1017F800DE01DF0103300A128A1586220A128A15D1
:10180800831203134508FF007F08C300DE01003080
:101818000A128A1153270A128A1583120313DE014A
:1018280001300A128A1153270A128A1583120313E8
:10183800DE0102300A128A1153270A128A1583120E
:101848000313DE0100300A128A15C8200A128A150D
:1018580083120313DE0101300A128A15C8200A1206
:101868008A15080083120313E10061183C2C402CF0
:10187800831603139F17432C831603139F13831296
:1018880003135608D80002300310D80CFF3E031D7E
:10189800482C5818502C542C831203139F16572C7D
:1018A800831203139F125608D80001300310D80C76
:1018B800FF3E031D5A2C5818622C662C8312031302
:1018C8001F16692C831203131F1256186C2C702CC8
:1018D800831203139F15732C831203139F111F1474
:1018E8001F151F19782C792C752C6108031D7D2C68
:1018F8007E2CA12C831603131E0883120313D80011
:1019080006300310D80CFF3E031D852C5808D9005B
:10191800DA011E08DB00DC010310DB0DDC0D03100F
:10192800DB0DDC0D59085B04DD005A085C04DE00A1
:101938005D08DF005E08E000A92C1E08E0008316A1
:1019480003131E0883120313DF001F106008D7005B
:101958005F08D60008000A30831203134E02031CE6
:10196800B62CB72CE92CE701E801E9016908CA3E61
:10197800840083130008E300E4016308E707031801
:10198800E80A6408E8070130FF007F08E9070A3021
:101998006902031CD02CD12CBA2C0A30DC00003090
:1019A800DD006808DF006708DE000A128A153220A9
:1019B8000A128A15831203135D08E8005C08E70021
:1019C8006708FF007F08CF00CE010230FF007F08C4
:1019D800D60001300A128A1536240A128A15831293
:1019E80003135708E6005608E500CC30DC00003049
:1019F800DD006608D7006508D6006430D8000030DE
:101A0800D9000A168A1144260A128A15831203136A
:101A18005708DF005608DE000A128A1532200A121B
:101A28008A15831203135C08FF007F08D000500852
:101A3800FF004E08CA3E84007F08831380000130EF
:101A4800FF007F08CE07080083120313D8001F1079
:101A58005808D70002300310D70CFF3E031D2F2D66
:101A68005718372D3B2D831603131F173E2D83164A
:101A780003131F13831203135808D70001300310F0
:101A8800D70CFF3E031D432D57184B2D4F2D8312A6
:101A980003139F17522D831203139F135818552DA4
:101AA800592D831203131F175C2D831203131F1361
:101AB8005608D70003300310D70CFF3E031D5F2DD7
:101AC8005718672D6B2D831603139F156E2D8316DC
:101AD80003139F11831203135608D7000230031013
:101AE800D70CFF3E031D732D57187B2D7F2D8316B2
:101AF80003131F15822D831603131F11831203135B
:101B08005608D70001300310D70CFF3E031D872D60
:101B180057188F2D932D831603139F14962D831614
:101B280003139F108312031356189B2D9F2D8316A2
:101B380003131F14A22D831603131F1008000A1283
:101B48008A11EA220A128A15831203134A03031D13
:101B5800AE2DAF2DC02D00300A168A114E250A125F
:101B68008A15033A031DB92DBA2DC02D0130FF0087
:101B78007F0883120313C407831203134A03031D48
:101B8800C62DC72DD62D01300A168A114E250A12E8
:101B98008A15033A031DD12DD22DD62D013083127B
:101BA8000313C4024C30831203134402031CDD2DBB
:101BB800DE2DE22D4B30FF007F08C40023304402A5
:101BC8000318E72DE82DEC2D2330FF007F08C40013
:101BD80000300A168A114E250A128A15033A03198B
:101BE800F62DF72D022E01300A168A114E250A12FB
:101BF8008A15033A031D012E022E0E2E831203139B
:101C08004A08031D082E092E0C2ECA01CA0A0E2ED8
:101C1800C701C70A02300A168A114E250A128A1508
:101C2800033A031D182E192E292E831203134B0372
:101C3800031D1F2E202E222ECB01292E4B08031DFB
:101C4800262E272E292ECB01CB0A08008312031338
:101C5800E800E830DC000330DD006808E400E50156
:101C68006408DE006508DF000A128A15E6220A12F7
:101C78008A15831203135C08FF007F08A3006430F1
:101C8800DC000030DD006808E400E5016408D800E5
:101C98006508D900E830D6000330D7000A128A1543
:101CA80070210A128A15831203135708DF00560899
:101CB800DE000A128A15E6220A128A158312031315
:101CC8005C08FF007F08A8006808E400E5016408D4
:101CD800D8006508D900E830D6000330D7000A12CA
:101CE8008A1570210A128A15831203135708E70010
:101CF8005608E6000A30DC000030DD006708D9002D
:101D08006608D8006430D6000030D7000A128A1559
:101D180070210A128A15831203135708DF00560828
:101D2800DE000A128A15E6220A128A1583120313A4
:101D38005C08FF007F08AD000A30D6000030D700ED
:101D48006808E400E5016408D8006508D9000A12AB
:101D58008A1570210A128A15831203135608FF0088
:101D68007F08B2000800831203132608FF007F08CB
:101D7800D900DA0100300A128A154C270A128A158E
:101D8800831203132B08FF007F08D900DA01003003
:101D98000A128A154C270A128A158312031330086F
:101DA800FF007F08D900DA0100300A128A154C2793
:101DB8000A128A150530FF007F0883120313D60024
:101DC80054080A168A1120250A128A15243E84000E
:101DD80083130003031DF12EF22E3E2F0530FF0062
:101DE8007F0883120313D60054080A168A11202587
:101DF8000A128A15233E840083130008B53E840026
:101E08000008FF007F0883120313D90003300A1269
:101E18008A1162200A128A150530FF007F08831292
:101E28000313D60054080A168A1120250A128A15A7
:101E3800213E840083130008FF007F0883120313E8
:101E4800D9000530FF007F08D60054080A168A1109
:101E580020250A128A15223E840083130008FF00F9
:101E68007F0883120313DA0000300A128A154C2700
:101E78000A128A150130FF007F0883120313D40762
:101E880004305402031C492F4A2F4B2FD401080059
:101E980083120313DD00E62F063059020318552F6D
:101EA800562FFF2F5A08DB00590A5C2F0310DB0D51
:101EB800FF3E031D5A2F0130DC00590A652F03101D
:101EC800DC0DFF3E031D632F5C08FF3A05055B042C
:101ED8008500FF2F083059020318732F742FFF2F26
:101EE8005A08DB00590A7A2F0310DB0DFF3E031D49
:101EF800782F0130DC00590A832F0310DC0DFF3ED8
:101F0800031D812F5C08FF3A06055B048600FF2F3E
:101F1800083059020318912F922FFF2F5A08DB001F
:101F2800590A982F0310DB0DFF3E031D962F013031
:101F3800DC00590AA12F0310DC0DFF3E031D9F2F63
:101F48005C08FF3A07055B048700FF2F0830590239
:101F58000318AF2FB02FFF2F5A08DB00590AB62FEE
:101F68000310DB0DFF3E031DB42F0130DC00590ABE
:101F7800BF2F0310DC0DFF3E031DBD2F5C08FF3A89
:101F880008055B048800FF2F033059020318CD2F82
:101F9800CE2FFF2F5A08DB00590AD42F0310DB0D70
:101FA800FF3E031DD22F0130DC00590ADD2F03103C
:101FB800DC0DFF3E031DDB2F5C08FF3A09055B04BF
:101FC8008900FF2F5D08DB00DC015C08003A03197B
:101FD800EE2FFF2F5B08003A0319502F013A03191F
:101FE8006E2F033A03198C2F013A0319AA2F073AC7
:081FF8000319C82FFF2F080098
:10267000831203134F0808000A168A11C3230A168F
:102680008A1108000A168A11D4230A168A11080032
:1026900083120313D6005608FF007F08CD00080000
:1026A00083120313D6005608FF007F08CC000800F1
:1026B00064008001840A0406031900340406592BBF
:1026C000831203134A03031D662B672B6C2B0A1618
:1026D0008A11BC270A168A1108008B170130831251
:1026E0000313D9000030DA000A128A1519210A16DC
:1026F0008A110800831203134903031D802B812BC9
:10270000872B00300A168A11C8260A168A1108007B
:102710008316031311081F39031D8F2B902B882B51
:102720001419932B942B882B111408008316031370
:1027300011081F39031D9D2B9E2B962B1419A12BBD
:10274000A22B962B11150800831603138715071665
:102750002830831203139400831603139101F03081
:102760009300940108000A128A15AF240A168A11F0
:102770000A128A11FC270A168A11FF007F088312A9
:102780000313C50008000230FF007F088312031303
:10279000D9004D08FF007F08DA0002300A128A15BE
:1027A0004C270A168A1108000530FF007F088312A3
:1027B0000313D9004C08FF007F08DA0002300A1228
:1027C0008A154C270A168A11080083120313E000A9
:1027D0000530D7000030D8006008FF007F08D9001E
:1027E0000A168A117B270A168A110800831203131E
:1027F000D9000530FF007F08D60059080A168A1153
:1028000020250A168A11373E8400831380010800B0
:10281000053083120313DC000030DD000A128A1534
:1028200028220A168A11FF007F0883120313E10091
:102830006108080083120313D9000530FF007F08E8
:10284000D60059080A168A1120250A168A11373E21
:10285000840083138001800A080083120313430855
:102860000A128A152A260A168A110A128A15B7260A
:102870000A168A110A128A15CB210A168A11080033
:10288000831203134603031D462C472C522C0A16B1
:102890008A1108240A168A11FF007F088312031385
:1028A000C400C60108000A128A15C0230A168A113C
:1028B0000A168A116D230A168A110A128A11AA2190
:1028C0000A168A115D2C0A128A1112287E088A00C3
:1028D0007F0882000A168A1166240A168A1180006F
:1028E000840A04087D0603190034FF0A0319FE0A4E
:1028F0006A2C83120313D6008316031311081F39A1
:10290000031D832C842C7C2C1419872C882C7C2C64
:1029100083120313560893000800F200F101721CA1
:10292000922C932C972C7008FF007F08F10703105E
:10293000F00D0310F20C7208031D9F2CA02C8F2C9D
:1029400071080800831203134803031DA82CA92C47
:10295000B02C01300A168A1148230A168A11B62CA7
:1029600000300A168A1148230A168A1108008312B9
:1029700003134803031DBD2CBE2CC52C01300A16C1
:102980008A111A240A168A11CB2C01300A168A11D0
:10299000F6230A168A110800831203134903031D44
:1029A000D22CD32CDA2C01300A168A1150230A16A5
:1029B0008A11E02C00300A168A1150230A168A1157
:1029C000080083120313DE000230FF007F08D900E5
:1029D000DA0102300A128A1105250A168A118312B9
:1029E00003135E08FF007F08CD0008000A168A1155
:1029F000A4230A168A11053083120313D70000306E
:102A0000D8003C30FF007F08D9000A168A117B27C6
:102A10000A168A11080083120313DE000530FF0036
:102A20007F08D900DA0102300A128A1105250A1638
:102A30008A11831203135E08FF007F08CC00080090
:102A400083120313D800D701581C272D282D2C2DB5
:102A50005608FF007F08D7070310D60D0310D80CC7
:102A60005808031D342D352D242D570808008312D6
:102A70000313DA000530FF007F08D6005A080A1653
:102A80008A1120250A168A11223E8400831203131C
:102A90005908FF007F088313800008008312031386
:102AA000D9000730FF007F08D60059080A168A119E
:102AB00020250A168A11A53E840083130008FF0012
:102AC0007F0883120313DA005A08080083120313E5
:102AD0004803031D6C2D6D2D7F2DD901D90A0230BD
:102AE0000A168A1137250A168A1183120313D9018F
:102AF000D90A03300A168A1137250A168A110800E6
:102B00008B1C832D842D862D8B108F2D0B1D892DD5
:102B10008A2D8F2D0A168A11FB250A168A1177082D
:102B200083120313FF0076088A0075088400740E70
:102B30008300FE0E7E0E09000034023400340A3495
:102B400000340134033400340A34003402340434D1
:102B500000340A3400340334053400340A340034B9
:102B600000340134063400340034013401340734B5
:102B700000340034003401340234003400340034B2
:102B800000340134013401340034003400340034A2
:102B900002340134003400340034003400343F3453
:102BA00006345B344F3466346D347D3407347F34FF
:102BB0006F34003483120313D001CF01DE015E08AD
:102BC000CA3E8400831380010130FF007F08DE07C6
:102BD0000A305E02031CED2DEE2DDF2D0230FF00CA
:102BE0007F08D900DA01DA0A00300A128A110525B5
:102BF0000A168A11080083120313D501D50A0B1196
:102C00000530FF007F08F00053080A168A118D2452
:102C10000A168A11903E840083170008F3000130E1
:102C20000310F30DFF3E031D102E0310730DFF3A2A
:102C3000013E83120313810008008312031349032A
:102C4000031D232E242E3D2ED901D90A02300A1647
:102C50008A1137250A168A1183120313D901D90A5A
:102C600003300A168A1137250A168A1100300A160F
:102C70008A111A240A168A11432E00300A168A1164
:102C8000F6230A168A11080083120313DA01DB0106
:102C9000561C4B2E4C2E522E5808DA070318DB0A0E
:102CA0005908DB0701300310D80DD90DFF3E031D75
:102CB000532E01300310D70CD60CFF3E031D5A2EA5
:102CC00056085704031D652E662E482E5B08D70054
:102CD0005A08D6000800E8340334023400340034C3
:102CE000F4340134043400340134FA340034083448
:102CF000003402347D3400341034003403343E3464
:102D000000342034003404341F34003440340034A0
:102D100005340F3400348034003406340734003472
:102D2000003401340734831203134A03031D992E20
:102D30009A2E9F2E4408FF007F08C300A32E45084B
:102D4000FF007F08C3004A03031DA72EA82EB52E3F
:102D50001A3078020318AD2EAE2EB52E4703031D90
:102D6000B22EB32EB52EF801C7014A03031DB92EAA
:102D7000BA2EC32E1A307802031CBF2EC02EC32ECB
:102D8000CA01F801C7010130FF007F08F8070800F9
:102D900083120313D9000530FF007F08D6005908BD
:102DA0000A168A1120250A168A11373E84008313D9
:102DB0000003031DDC2EDD2EEE2E0530FF007F0804
:102DC00083120313D60059080A168A1120250A1601
:102DD0008A11373E840083138001FF2E0530FF00E7
:102DE0007F0883120313D60059080A168A1120257A
:102DF0000A168A11373E840083138001800A080076
:102E000083120313560857040319072F082F372F6F
:102E1000DA01DA0A162F01300310D60DD70DFF3E66
:102E2000031D0C2F0130FF007F08DA07D71F192F71
:102E30001A2F0B2F57085902031D202F560858022E
:102E4000031C232F242F2A2F5608D8025708031CAF
:102E5000D903D90201300310D70CD60CFF3E031D55
:102E60002B2F0130DA02031D362F372F1A2F590866
:102E7000D7005808D60008008316031311081F391D
:102E8000031D432F442F3C2F1419472F482F3C2F4D
:102E9000911511081F39031D4E2F4F2F492F14195B
:102EA000522F532F492F831203131308D800D9012F
:102EB0005808DA005908DB008316031311081F397C
:102EC000031D632F642F5C2F1419672F682F5C2F4D
:102ED000831203135608570403196F2F732F831699
:102EE00003139116762F8316031391121116831272
:102EF00003135A080800831203135908DA00DB0190
:102F00005A08DC005B08DD0058080139FF007F0823
:102F1000DE005708FF007F08DF000A168A118823A9
:102F20000A168A11831203135E080319982F992F2A
:102F3000A02FA2300A168A1179240A168A11A62F08
:102F4000A0300A168A1179240A168A1183120313F3
:102F50005F080A168A1179240A168A11831203134C
:102F60005C080A168A1179240A168A110A168A112F
:102F700096230A168A11080083120313D90105301B
:102F8000FF007F08D60059080A168A1120250A1664
:102F90008A11223E840083130003031DD02FD12FFA
:102FA000E22F0530FF007F0883120313D600590873
:102FB0000A168A1120250A168A11223E84008313DC
:102FC0008001F32F0530FF007F0883120313D60022
:102FD00059080A168A1120250A168A11223E8400F1
:102FE00083138001800A0130FF007F0883120313DE
:102FF000D90704305902031CFE2FFF2FBF2F0800F2
:02400E00323F3F
:00000001FF
